{
  "contractName": "DemoToken",
  "abi": [
    {
      "constant": true,
      "inputs": [],
      "name": "name",
      "outputs": [
        {
          "name": "",
          "type": "string"
        }
      ],
      "payable": false,
      "stateMutability": "view",
      "type": "function"
    },
    {
      "constant": true,
      "inputs": [],
      "name": "totalSupply",
      "outputs": [
        {
          "name": "",
          "type": "uint256"
        }
      ],
      "payable": false,
      "stateMutability": "view",
      "type": "function"
    },
    {
      "constant": true,
      "inputs": [],
      "name": "decimals",
      "outputs": [
        {
          "name": "",
          "type": "uint8"
        }
      ],
      "payable": false,
      "stateMutability": "view",
      "type": "function"
    },
    {
      "constant": true,
      "inputs": [
        {
          "name": "",
          "type": "address"
        }
      ],
      "name": "balanceOf",
      "outputs": [
        {
          "name": "",
          "type": "uint256"
        }
      ],
      "payable": false,
      "stateMutability": "view",
      "type": "function"
    },
    {
      "constant": true,
      "inputs": [],
      "name": "symbol",
      "outputs": [
        {
          "name": "",
          "type": "string"
        }
      ],
      "payable": false,
      "stateMutability": "view",
      "type": "function"
    },
    {
      "constant": true,
      "inputs": [
        {
          "name": "",
          "type": "address"
        },
        {
          "name": "",
          "type": "address"
        }
      ],
      "name": "allowance",
      "outputs": [
        {
          "name": "",
          "type": "uint256"
        }
      ],
      "payable": false,
      "stateMutability": "view",
      "type": "function"
    },
    {
      "inputs": [
        {
          "name": "initialSupply",
          "type": "uint256"
        },
        {
          "name": "tokenName",
          "type": "string"
        },
        {
          "name": "decimalUnits",
          "type": "uint8"
        },
        {
          "name": "tokenSymbol",
          "type": "string"
        }
      ],
      "payable": false,
      "stateMutability": "nonpayable",
      "type": "constructor"
    },
    {
      "anonymous": false,
      "inputs": [
        {
          "indexed": true,
          "name": "from",
          "type": "address"
        },
        {
          "indexed": true,
          "name": "to",
          "type": "address"
        },
        {
          "indexed": false,
          "name": "value",
          "type": "uint256"
        }
      ],
      "name": "Transfer",
      "type": "event"
    },
    {
      "constant": false,
      "inputs": [
        {
          "name": "_to",
          "type": "address"
        },
        {
          "name": "_value",
          "type": "uint256"
        }
      ],
      "name": "transfer",
      "outputs": [],
      "payable": false,
      "stateMutability": "nonpayable",
      "type": "function"
    },
    {
      "constant": false,
      "inputs": [
        {
          "name": "addr",
          "type": "address"
        }
      ],
      "name": "getBalance",
      "outputs": [
        {
          "name": "",
          "type": "uint256"
        }
      ],
      "payable": false,
      "stateMutability": "nonpayable",
      "type": "function"
    }
  ],
  "bytecode": "0x6060604052341561000f57600080fd5b6040516108cd3803806108cd8339810160405280805190602001909190805182019190602001805190602001909190805182019190505083600460003373ffffffffffffffffffffffffffffffffffffffff1673ffffffffffffffffffffffffffffffffffffffff168152602001908152602001600020819055508360038190555082600090805190602001906100a79291906100e3565b5080600190805190602001906100be9291906100e3565b5081600260006101000a81548160ff021916908360ff16021790555050505050610188565b828054600181600116156101000203166002900490600052602060002090601f016020900481019282601f1061012457805160ff1916838001178555610152565b82800160010185558215610152579182015b82811115610151578251825591602001919060010190610136565b5b50905061015f9190610163565b5090565b61018591905b80821115610181576000816000905550600101610169565b5090565b90565b610736806101976000396000f30060606040526004361061008e576000357c0100000000000000000000000000000000000000000000000000000000900463ffffffff16806306fdde031461009357806318160ddd14610121578063313ce5671461014a57806370a082311461017957806395d89b41146101c6578063a9059cbb14610254578063dd62ed3e14610296578063f8b2cb4f14610302575b600080fd5b341561009e57600080fd5b6100a661034f565b6040518080602001828103825283818151815260200191508051906020019080838360005b838110156100e65780820151818401526020810190506100cb565b50505050905090810190601f1680156101135780820380516001836020036101000a031916815260200191505b509250505060405180910390f35b341561012c57600080fd5b6101346103ed565b6040518082815260200191505060405180910390f35b341561015557600080fd5b61015d6103f3565b604051808260ff1660ff16815260200191505060405180910390f35b341561018457600080fd5b6101b0600480803573ffffffffffffffffffffffffffffffffffffffff16906020019091905050610406565b6040518082815260200191505060405180910390f35b34156101d157600080fd5b6101d961041e565b6040518080602001828103825283818151815260200191508051906020019080838360005b838110156102195780820151818401526020810190506101fe565b50505050905090810190601f1680156102465780820380516001836020036101000a031916815260200191505b509250505060405180910390f35b341561025f57600080fd5b610294600480803573ffffffffffffffffffffffffffffffffffffffff169060200190919080359060200190919050506104bc565b005b34156102a157600080fd5b6102ec600480803573ffffffffffffffffffffffffffffffffffffffff1690602001909190803573ffffffffffffffffffffffffffffffffffffffff1690602001909190505061069c565b6040518082815260200191505060405180910390f35b341561030d57600080fd5b610339600480803573ffffffffffffffffffffffffffffffffffffffff169060200190919050506106c1565b6040518082815260200191505060405180910390f35b60008054600181600116156101000203166002900480601f0160208091040260200160405190810160405280929190818152602001828054600181600116156101000203166002900480156103e55780601f106103ba576101008083540402835291602001916103e5565b820191906000526020600020905b8154815290600101906020018083116103c857829003601f168201915b505050505081565b60035481565b600260009054906101000a900460ff1681565b60046020528060005260406000206000915090505481565b60018054600181600116156101000203166002900480601f0160208091040260200160405190810160405280929190818152602001828054600181600116156101000203166002900480156104b45780601f10610489576101008083540402835291602001916104b4565b820191906000526020600020905b81548152906001019060200180831161049757829003601f168201915b505050505081565b80600460003373ffffffffffffffffffffffffffffffffffffffff1673ffffffffffffffffffffffffffffffffffffffff168152602001908152602001600020541015151561050a57600080fd5b600460008373ffffffffffffffffffffffffffffffffffffffff1673ffffffffffffffffffffffffffffffffffffffff1681526020019081526020016000205481600460008573ffffffffffffffffffffffffffffffffffffffff1673ffffffffffffffffffffffffffffffffffffffff16815260200190815260200160002054011015151561059957600080fd5b80600460003373ffffffffffffffffffffffffffffffffffffffff1673ffffffffffffffffffffffffffffffffffffffff1681526020019081526020016000206000828254039250508190555080600460008473ffffffffffffffffffffffffffffffffffffffff1673ffffffffffffffffffffffffffffffffffffffff168152602001908152602001600020600082825401925050819055508173ffffffffffffffffffffffffffffffffffffffff163373ffffffffffffffffffffffffffffffffffffffff167fddf252ad1be2c89b69c2b068fc378daa952ba7f163c4a11628f55a4df523b3ef836040518082815260200191505060405180910390a35050565b6005602052816000526040600020602052806000526040600020600091509150505481565b6000600460008373ffffffffffffffffffffffffffffffffffffffff1673ffffffffffffffffffffffffffffffffffffffff1681526020019081526020016000205490509190505600a165627a7a723058200b375e8ec4365a678e318fd1134d15cb851f4a00ce956c947e4cd76a9361f35f0029",
  "source": "pragma solidity ^0.4.2;\r\n\r\ncontract DemoToken {\r\n    /* Public variables of the token */\r\n    string public name;\r\n    string public symbol;\r\n    uint8 public decimals;\r\n    uint256 public totalSupply;\r\n\r\n    /* This creates an array with all balances */\r\n    mapping (address => uint256) public balanceOf;\r\n    mapping (address => mapping (address => uint256)) public allowance;\r\n\r\n    /* This generates a public event on the blockchain that will notify clients */\r\n    event Transfer(address indexed from, address indexed to, uint256 value);\r\n\r\n    /* Initializes contract with initial supply tokens to the creator of the contract */\r\n    function DemoToken(\r\n        uint256 initialSupply,\r\n        string tokenName,\r\n        uint8 decimalUnits,\r\n        string tokenSymbol\r\n        ) {\r\n        balanceOf[msg.sender] = initialSupply;              // Give the creator all initial tokens\r\n        totalSupply = initialSupply;                        // Update total supply\r\n        name = tokenName;                                   // Set the name for display purposes\r\n        symbol = tokenSymbol;                               // Set the symbol for display purposes\r\n        decimals = decimalUnits;                            // Amount of decimals for display purposes\r\n    }\r\n\r\n    /* Send coins */\r\n    function transfer(address _to, uint256 _value) {\r\n        require (balanceOf[msg.sender] >= _value) ;          // Check if the sender has enough\r\n        require (balanceOf[_to] + _value >= balanceOf[_to]); // Check for overflows\r\n        balanceOf[msg.sender] -= _value;                     // Subtract from the sender\r\n        balanceOf[_to] += _value;                            // Add the same to the recipient\r\n        Transfer(msg.sender, _to, _value);                   // Notify anyone listening that this transfer took place\r\n    }\r\n\r\n    // todo check balance \r\n\r\n\r\n    function getBalance(address addr) returns(uint) {\r\n\t\treturn balanceOf[addr];\r\n\t}\r\n    \r\n\r\n\r\n}",
  "sourcePath": "C:\\Eth\\DemoToken\\contracts\\DemoToken.sol",
  "compiler": {
    "name": "solc",
    "version": "0.4.19+commit.c4cbbb05.Emscripten.clang"
  },
  "schemaVersion": "1.0.1",
  "updatedAt": "2018-02-22T21:29:03.560Z"
}